{
	"contracts/InterchainCounter.sol": {
		"InterchainCounter": {
			"abi": [
				{
					"inputs": [
						{
							"internalType": "address",
							"name": "interchainTokenService_",
							"type": "address"
						}
					],
					"stateMutability": "nonpayable",
					"type": "constructor"
				},
				{
					"inputs": [
						{
							"internalType": "address",
							"name": "caller",
							"type": "address"
						}
					],
					"name": "NotService",
					"type": "error"
				},
				{
					"inputs": [],
					"name": "counter",
					"outputs": [
						{
							"internalType": "uint256",
							"name": "",
							"type": "uint256"
						}
					],
					"stateMutability": "view",
					"type": "function"
				},
				{
					"inputs": [],
					"name": "decrease",
					"outputs": [],
					"stateMutability": "nonpayable",
					"type": "function"
				},
				{
					"inputs": [],
					"name": "encrease",
					"outputs": [],
					"stateMutability": "nonpayable",
					"type": "function"
				},
				{
					"inputs": [
						{
							"internalType": "bytes32",
							"name": "commandId",
							"type": "bytes32"
						},
						{
							"internalType": "string",
							"name": "sourceChain",
							"type": "string"
						},
						{
							"internalType": "bytes",
							"name": "sourceAddress",
							"type": "bytes"
						},
						{
							"internalType": "bytes",
							"name": "data",
							"type": "bytes"
						},
						{
							"internalType": "bytes32",
							"name": "tokenId",
							"type": "bytes32"
						},
						{
							"internalType": "address",
							"name": "token",
							"type": "address"
						},
						{
							"internalType": "uint256",
							"name": "amount",
							"type": "uint256"
						}
					],
					"name": "executeWithInterchainToken",
					"outputs": [
						{
							"internalType": "bytes32",
							"name": "",
							"type": "bytes32"
						}
					],
					"stateMutability": "nonpayable",
					"type": "function"
				},
				{
					"inputs": [],
					"name": "getCounter",
					"outputs": [
						{
							"internalType": "uint256",
							"name": "",
							"type": "uint256"
						}
					],
					"stateMutability": "view",
					"type": "function"
				},
				{
					"inputs": [],
					"name": "interchainTokenService",
					"outputs": [
						{
							"internalType": "address",
							"name": "",
							"type": "address"
						}
					],
					"stateMutability": "view",
					"type": "function"
				}
			],
			"devdoc": {
				"kind": "dev",
				"methods": {
					"executeWithInterchainToken(bytes32,string,bytes,bytes,bytes32,address,uint256)": {
						"details": "Only callable by the interchain token service.",
						"params": {
							"amount": "The amount of tokens being transferred.",
							"commandId": "The unique message id.",
							"data": "The data associated with the token transfer.",
							"sourceAddress": "The source address of the token transfer.",
							"sourceChain": "The source chain of the token transfer.",
							"token": "The token address.",
							"tokenId": "The token ID."
						},
						"returns": {
							"_0": "bytes32 Hash indicating success of the execution."
						}
					}
				},
				"version": 1
			},
			"evm": {
				"assembly": "    /* \"contracts/InterchainCounter.sol\":254:1145  contract InterchainCounter is InterchainTokenExecutable {... */\n  mstore(0x40, 0xa0)\n    /* \"contracts/InterchainCounter.sol\":430:528  constructor(address interchainTokenService_) InterchainTokenExecutable(interchainTokenService_) {} */\n  callvalue\n  dup1\n  iszero\n  tag_1\n  jumpi\n  revert(0x00, 0x00)\ntag_1:\n  pop\n  mload(0x40)\n  sub(codesize, bytecodeSize)\n  dup1\n  bytecodeSize\n  dup4\n  codecopy\n  dup2\n  dup2\n  add\n  0x40\n  mstore\n  dup2\n  add\n  swap1\n  tag_2\n  swap2\n  swap1\n  tag_3\n  jump\t// in\ntag_2:\n    /* \"contracts/InterchainCounter.sol\":501:524  interchainTokenService_ */\n  dup1\n    /* \"@axelar-network/interchain-token-service/contracts/executable/InterchainTokenExecutable.sol\":1081:1104  interchainTokenService_ */\n  dup1\n    /* \"@axelar-network/interchain-token-service/contracts/executable/InterchainTokenExecutable.sol\":1056:1104  interchainTokenService = interchainTokenService_ */\n  0xffffffffffffffffffffffffffffffffffffffff\n  and\n  0x80\n  dup2\n  0xffffffffffffffffffffffffffffffffffffffff\n  and\n  dup2\n  mstore\n  pop\n  pop\n    /* \"@axelar-network/interchain-token-service/contracts/executable/InterchainTokenExecutable.sol\":1001:1111  constructor(address interchainTokenService_) {... */\n  pop\n    /* \"contracts/InterchainCounter.sol\":430:528  constructor(address interchainTokenService_) InterchainTokenExecutable(interchainTokenService_) {} */\n  pop\n    /* \"contracts/InterchainCounter.sol\":254:1145  contract InterchainCounter is InterchainTokenExecutable {... */\n  jump(tag_8)\n    /* \"#utility.yul\":88:205   */\ntag_10:\n    /* \"#utility.yul\":197:198   */\n  0x00\n    /* \"#utility.yul\":194:195   */\n  0x00\n    /* \"#utility.yul\":187:199   */\n  revert\n    /* \"#utility.yul\":334:460   */\ntag_12:\n    /* \"#utility.yul\":371:378   */\n  0x00\n    /* \"#utility.yul\":411:453   */\n  0xffffffffffffffffffffffffffffffffffffffff\n    /* \"#utility.yul\":404:409   */\n  dup3\n    /* \"#utility.yul\":400:454   */\n  and\n    /* \"#utility.yul\":389:454   */\n  swap1\n  pop\n    /* \"#utility.yul\":334:460   */\n  swap2\n  swap1\n  pop\n  jump\t// out\n    /* \"#utility.yul\":466:562   */\ntag_13:\n    /* \"#utility.yul\":503:510   */\n  0x00\n    /* \"#utility.yul\":532:556   */\n  tag_22\n    /* \"#utility.yul\":550:555   */\n  dup3\n    /* \"#utility.yul\":532:556   */\n  tag_12\n  jump\t// in\ntag_22:\n    /* \"#utility.yul\":521:556   */\n  swap1\n  pop\n    /* \"#utility.yul\":466:562   */\n  swap2\n  swap1\n  pop\n  jump\t// out\n    /* \"#utility.yul\":568:690   */\ntag_14:\n    /* \"#utility.yul\":641:665   */\n  tag_24\n    /* \"#utility.yul\":659:664   */\n  dup2\n    /* \"#utility.yul\":641:665   */\n  tag_13\n  jump\t// in\ntag_24:\n    /* \"#utility.yul\":634:639   */\n  dup2\n    /* \"#utility.yul\":631:666   */\n  eq\n    /* \"#utility.yul\":621:684   */\n  tag_25\n  jumpi\n    /* \"#utility.yul\":680:681   */\n  0x00\n    /* \"#utility.yul\":677:678   */\n  0x00\n    /* \"#utility.yul\":670:682   */\n  revert\n    /* \"#utility.yul\":621:684   */\ntag_25:\n    /* \"#utility.yul\":568:690   */\n  pop\n  jump\t// out\n    /* \"#utility.yul\":696:839   */\ntag_15:\n    /* \"#utility.yul\":753:758   */\n  0x00\n    /* \"#utility.yul\":784:790   */\n  dup2\n    /* \"#utility.yul\":778:791   */\n  mload\n    /* \"#utility.yul\":769:791   */\n  swap1\n  pop\n    /* \"#utility.yul\":800:833   */\n  tag_27\n    /* \"#utility.yul\":827:832   */\n  dup2\n    /* \"#utility.yul\":800:833   */\n  tag_14\n  jump\t// in\ntag_27:\n    /* \"#utility.yul\":696:839   */\n  swap3\n  swap2\n  pop\n  pop\n  jump\t// out\n    /* \"#utility.yul\":845:1196   */\ntag_3:\n    /* \"#utility.yul\":915:921   */\n  0x00\n    /* \"#utility.yul\":964:966   */\n  0x20\n    /* \"#utility.yul\":952:961   */\n  dup3\n    /* \"#utility.yul\":943:950   */\n  dup5\n    /* \"#utility.yul\":939:962   */\n  sub\n    /* \"#utility.yul\":935:967   */\n  slt\n    /* \"#utility.yul\":932:1051   */\n  iszero\n  tag_29\n  jumpi\n    /* \"#utility.yul\":970:1049   */\n  tag_30\n  tag_10\n  jump\t// in\ntag_30:\n    /* \"#utility.yul\":932:1051   */\ntag_29:\n    /* \"#utility.yul\":1090:1091   */\n  0x00\n    /* \"#utility.yul\":1115:1179   */\n  tag_31\n    /* \"#utility.yul\":1171:1178   */\n  dup5\n    /* \"#utility.yul\":1162:1168   */\n  dup3\n    /* \"#utility.yul\":1151:1160   */\n  dup6\n    /* \"#utility.yul\":1147:1169   */\n  add\n    /* \"#utility.yul\":1115:1179   */\n  tag_15\n  jump\t// in\ntag_31:\n    /* \"#utility.yul\":1105:1179   */\n  swap2\n  pop\n    /* \"#utility.yul\":1061:1189   */\n  pop\n    /* \"#utility.yul\":845:1196   */\n  swap3\n  swap2\n  pop\n  pop\n  jump\t// out\n    /* \"contracts/InterchainCounter.sol\":254:1145  contract InterchainCounter is InterchainTokenExecutable {... */\ntag_8:\n  mload(0x80)\n  codecopy(0x00, dataOffset(sub_0), dataSize(sub_0))\n  0x00\n  assignImmutable(\"0x7f8b6b088b6d74c2852fc86c796dca07b44eed6fb3daf5e6b59f7c364db14528\")\n  return(0x00, dataSize(sub_0))\nstop\n\nsub_0: assembly {\n        /* \"contracts/InterchainCounter.sol\":254:1145  contract InterchainCounter is InterchainTokenExecutable {... */\n      mstore(0x40, 0x80)\n      callvalue\n      dup1\n      iszero\n      tag_1\n      jumpi\n      revert(0x00, 0x00)\n    tag_1:\n      pop\n      jumpi(tag_2, lt(calldatasize, 0x04))\n      shr(0xe0, calldataload(0x00))\n      dup1\n      0x09c6bed9\n      eq\n      tag_3\n      jumpi\n      dup1\n      0x29241502\n      eq\n      tag_4\n      jumpi\n      dup1\n      0x3eb392c7\n      eq\n      tag_5\n      jumpi\n      dup1\n      0x61bc221a\n      eq\n      tag_6\n      jumpi\n      dup1\n      0x8ada066e\n      eq\n      tag_7\n      jumpi\n      dup1\n      0xd732d955\n      eq\n      tag_8\n      jumpi\n    tag_2:\n      revert(0x00, 0x00)\n        /* \"@axelar-network/interchain-token-service/contracts/executable/InterchainTokenExecutable.sol\":671:718  address public immutable interchainTokenService */\n    tag_3:\n      tag_9\n      tag_10\n      jump\t// in\n    tag_9:\n      mload(0x40)\n      tag_11\n      swap2\n      swap1\n      tag_12\n      jump\t// in\n    tag_11:\n      mload(0x40)\n      dup1\n      swap2\n      sub\n      swap1\n      return\n        /* \"@axelar-network/interchain-token-service/contracts/executable/InterchainTokenExecutable.sol\":1942:2379  function executeWithInterchainToken(... */\n    tag_4:\n      tag_13\n      0x04\n      dup1\n      calldatasize\n      sub\n      dup2\n      add\n      swap1\n      tag_14\n      swap2\n      swap1\n      tag_15\n      jump\t// in\n    tag_14:\n      tag_16\n      jump\t// in\n    tag_13:\n      mload(0x40)\n      tag_17\n      swap2\n      swap1\n      tag_18\n      jump\t// in\n    tag_17:\n      mload(0x40)\n      dup1\n      swap2\n      sub\n      swap1\n      return\n        /* \"contracts/InterchainCounter.sol\":1030:1084  function encrease() public {... */\n    tag_5:\n      tag_19\n      tag_20\n      jump\t// in\n    tag_19:\n      stop\n        /* \"contracts/InterchainCounter.sol\":316:335  uint public counter */\n    tag_6:\n      tag_21\n      tag_22\n      jump\t// in\n    tag_21:\n      mload(0x40)\n      tag_23\n      swap2\n      swap1\n      tag_24\n      jump\t// in\n    tag_23:\n      mload(0x40)\n      dup1\n      swap2\n      sub\n      swap1\n      return\n        /* \"contracts/InterchainCounter.sol\":342:424  function getCounter() external view returns (uint) {... */\n    tag_7:\n      tag_25\n      tag_26\n      jump\t// in\n    tag_25:\n      mload(0x40)\n      tag_27\n      swap2\n      swap1\n      tag_24\n      jump\t// in\n    tag_27:\n      mload(0x40)\n      dup1\n      swap2\n      sub\n      swap1\n      return\n        /* \"contracts/InterchainCounter.sol\":1090:1143  function decrease() public{... */\n    tag_8:\n      tag_28\n      tag_29\n      jump\t// in\n    tag_28:\n      stop\n        /* \"@axelar-network/interchain-token-service/contracts/executable/InterchainTokenExecutable.sol\":671:718  address public immutable interchainTokenService */\n    tag_10:\n      immutable(\"0x7f8b6b088b6d74c2852fc86c796dca07b44eed6fb3daf5e6b59f7c364db14528\")\n      dup2\n      jump\t// out\n        /* \"@axelar-network/interchain-token-service/contracts/executable/InterchainTokenExecutable.sol\":1942:2379  function executeWithInterchainToken(... */\n    tag_16:\n        /* \"@axelar-network/interchain-token-service/contracts/executable/InterchainTokenExecutable.sol\":2225:2232  bytes32 */\n      0x00\n        /* \"@axelar-network/interchain-token-service/contracts/executable/InterchainTokenExecutable.sol\":1264:1286  interchainTokenService */\n      immutable(\"0x7f8b6b088b6d74c2852fc86c796dca07b44eed6fb3daf5e6b59f7c364db14528\")\n        /* \"@axelar-network/interchain-token-service/contracts/executable/InterchainTokenExecutable.sol\":1250:1286  msg.sender != interchainTokenService */\n      0xffffffffffffffffffffffffffffffffffffffff\n      and\n        /* \"@axelar-network/interchain-token-service/contracts/executable/InterchainTokenExecutable.sol\":1250:1260  msg.sender */\n      caller\n        /* \"@axelar-network/interchain-token-service/contracts/executable/InterchainTokenExecutable.sol\":1250:1286  msg.sender != interchainTokenService */\n      0xffffffffffffffffffffffffffffffffffffffff\n      and\n      eq\n        /* \"@axelar-network/interchain-token-service/contracts/executable/InterchainTokenExecutable.sol\":1246:1317  if (msg.sender != interchainTokenService) revert NotService(msg.sender) */\n      tag_31\n      jumpi\n        /* \"@axelar-network/interchain-token-service/contracts/executable/InterchainTokenExecutable.sol\":1306:1316  msg.sender */\n      caller\n        /* \"@axelar-network/interchain-token-service/contracts/executable/InterchainTokenExecutable.sol\":1295:1317  NotService(msg.sender) */\n      mload(0x40)\n      0x0d6c7be900000000000000000000000000000000000000000000000000000000\n      dup2\n      mstore\n      0x04\n      add\n      tag_32\n      swap2\n      swap1\n      tag_12\n      jump\t// in\n    tag_32:\n      mload(0x40)\n      dup1\n      swap2\n      sub\n      swap1\n      revert\n        /* \"@axelar-network/interchain-token-service/contracts/executable/InterchainTokenExecutable.sol\":1246:1317  if (msg.sender != interchainTokenService) revert NotService(msg.sender) */\n    tag_31:\n        /* \"@axelar-network/interchain-token-service/contracts/executable/InterchainTokenExecutable.sol\":2244:2340  _executeWithInterchainToken(commandId, sourceChain, sourceAddress, data, tokenId, token, amount) */\n      tag_34\n        /* \"@axelar-network/interchain-token-service/contracts/executable/InterchainTokenExecutable.sol\":2272:2281  commandId */\n      dup12\n        /* \"@axelar-network/interchain-token-service/contracts/executable/InterchainTokenExecutable.sol\":2283:2294  sourceChain */\n      dup12\n      dup12\n        /* \"@axelar-network/interchain-token-service/contracts/executable/InterchainTokenExecutable.sol\":2296:2309  sourceAddress */\n      dup12\n      dup12\n        /* \"@axelar-network/interchain-token-service/contracts/executable/InterchainTokenExecutable.sol\":2311:2315  data */\n      dup12\n      dup12\n        /* \"@axelar-network/interchain-token-service/contracts/executable/InterchainTokenExecutable.sol\":2317:2324  tokenId */\n      dup12\n        /* \"@axelar-network/interchain-token-service/contracts/executable/InterchainTokenExecutable.sol\":2326:2331  token */\n      dup12\n        /* \"@axelar-network/interchain-token-service/contracts/executable/InterchainTokenExecutable.sol\":2333:2339  amount */\n      dup12\n        /* \"@axelar-network/interchain-token-service/contracts/executable/InterchainTokenExecutable.sol\":2244:2271  _executeWithInterchainToken */\n      tag_35\n        /* \"@axelar-network/interchain-token-service/contracts/executable/InterchainTokenExecutable.sol\":2244:2340  _executeWithInterchainToken(commandId, sourceChain, sourceAddress, data, tokenId, token, amount) */\n      jump\t// in\n    tag_34:\n        /* \"@axelar-network/interchain-token-service/contracts/executable/InterchainTokenExecutable.sol\":769:801  keccak256('its-execute-success') */\n      0xe84001f3dedacf7f9ddc370e9f09c26b37473e9e959ffdc4925f6fe33c9877e4\n        /* \"@axelar-network/interchain-token-service/contracts/executable/InterchainTokenExecutable.sol\":2350:2372  return EXECUTE_SUCCESS */\n      swap1\n      pop\n        /* \"@axelar-network/interchain-token-service/contracts/executable/InterchainTokenExecutable.sol\":1942:2379  function executeWithInterchainToken(... */\n      swap11\n      swap10\n      pop\n      pop\n      pop\n      pop\n      pop\n      pop\n      pop\n      pop\n      pop\n      pop\n      jump\t// out\n        /* \"contracts/InterchainCounter.sol\":1030:1084  function encrease() public {... */\n    tag_20:\n        /* \"contracts/InterchainCounter.sol\":1076:1077  1 */\n      0x01\n        /* \"contracts/InterchainCounter.sol\":1067:1074  counter */\n      0x00\n      0x00\n        /* \"contracts/InterchainCounter.sol\":1067:1077  counter+=1 */\n      dup3\n      dup3\n      sload\n      tag_37\n      swap2\n      swap1\n      tag_38\n      jump\t// in\n    tag_37:\n      swap3\n      pop\n      pop\n      dup2\n      swap1\n      sstore\n      pop\n        /* \"contracts/InterchainCounter.sol\":1030:1084  function encrease() public {... */\n      jump\t// out\n        /* \"contracts/InterchainCounter.sol\":316:335  uint public counter */\n    tag_22:\n      sload(0x00)\n      dup2\n      jump\t// out\n        /* \"contracts/InterchainCounter.sol\":342:424  function getCounter() external view returns (uint) {... */\n    tag_26:\n        /* \"contracts/InterchainCounter.sol\":387:391  uint */\n      0x00\n        /* \"contracts/InterchainCounter.sol\":410:417  counter */\n      sload(0x00)\n        /* \"contracts/InterchainCounter.sol\":403:417  return counter */\n      swap1\n      pop\n        /* \"contracts/InterchainCounter.sol\":342:424  function getCounter() external view returns (uint) {... */\n      swap1\n      jump\t// out\n        /* \"contracts/InterchainCounter.sol\":1090:1143  function decrease() public{... */\n    tag_29:\n        /* \"contracts/InterchainCounter.sol\":1135:1136  1 */\n      0x01\n        /* \"contracts/InterchainCounter.sol\":1126:1133  counter */\n      0x00\n      0x00\n        /* \"contracts/InterchainCounter.sol\":1126:1136  counter-=1 */\n      dup3\n      dup3\n      sload\n      tag_41\n      swap2\n      swap1\n      tag_42\n      jump\t// in\n    tag_41:\n      swap3\n      pop\n      pop\n      dup2\n      swap1\n      sstore\n      pop\n        /* \"contracts/InterchainCounter.sol\":1090:1143  function decrease() public{... */\n      jump\t// out\n        /* \"contracts/InterchainCounter.sol\":534:1024  function _executeWithInterchainToken(... */\n    tag_35:\n        /* \"contracts/InterchainCounter.sol\":809:822  uint8 commend */\n      0x00\n        /* \"contracts/InterchainCounter.sol\":837:841  data */\n      dup6\n      dup6\n        /* \"contracts/InterchainCounter.sol\":826:851  abi.decode(data, (uint8)) */\n      dup2\n      add\n      swap1\n      tag_44\n      swap2\n      swap1\n      tag_45\n      jump\t// in\n    tag_44:\n        /* \"contracts/InterchainCounter.sol\":808:851  (uint8 commend) = abi.decode(data, (uint8)) */\n      swap1\n      pop\n        /* \"contracts/InterchainCounter.sol\":881:897  Command.ENCREASE */\n      0x00\n        /* \"contracts/InterchainCounter.sol\":875:898  uint8(Command.ENCREASE) */\n      0x01\n      dup2\n      gt\n      iszero\n      tag_46\n      jumpi\n      tag_47\n      tag_48\n      jump\t// in\n    tag_47:\n    tag_46:\n        /* \"contracts/InterchainCounter.sol\":864:898  commend == uint8(Command.ENCREASE) */\n      0xff\n      and\n        /* \"contracts/InterchainCounter.sol\":864:871  commend */\n      dup2\n        /* \"contracts/InterchainCounter.sol\":864:898  commend == uint8(Command.ENCREASE) */\n      0xff\n      and\n      sub\n        /* \"contracts/InterchainCounter.sol\":861:935  if(commend == uint8(Command.ENCREASE)) {... */\n      tag_49\n      jumpi\n        /* \"contracts/InterchainCounter.sol\":914:924  encrease() */\n      tag_50\n        /* \"contracts/InterchainCounter.sol\":914:922  encrease */\n      tag_20\n        /* \"contracts/InterchainCounter.sol\":914:924  encrease() */\n      jump\t// in\n    tag_50:\n        /* \"contracts/InterchainCounter.sol\":861:935  if(commend == uint8(Command.ENCREASE)) {... */\n    tag_49:\n        /* \"contracts/InterchainCounter.sol\":964:980  Command.DECREASE */\n      0x01\n        /* \"contracts/InterchainCounter.sol\":958:981  uint8(Command.DECREASE) */\n      dup1\n      dup2\n      gt\n      iszero\n      tag_51\n      jumpi\n      tag_52\n      tag_48\n      jump\t// in\n    tag_52:\n    tag_51:\n        /* \"contracts/InterchainCounter.sol\":947:981  commend == uint8(Command.DECREASE) */\n      0xff\n      and\n        /* \"contracts/InterchainCounter.sol\":947:954  commend */\n      dup2\n        /* \"contracts/InterchainCounter.sol\":947:981  commend == uint8(Command.DECREASE) */\n      0xff\n      and\n      sub\n        /* \"contracts/InterchainCounter.sol\":944:1018  if(commend == uint8(Command.DECREASE)) {... */\n      tag_53\n      jumpi\n        /* \"contracts/InterchainCounter.sol\":997:1007  decrease() */\n      tag_54\n        /* \"contracts/InterchainCounter.sol\":997:1005  decrease */\n      tag_29\n        /* \"contracts/InterchainCounter.sol\":997:1007  decrease() */\n      jump\t// in\n    tag_54:\n        /* \"contracts/InterchainCounter.sol\":944:1018  if(commend == uint8(Command.DECREASE)) {... */\n    tag_53:\n        /* \"contracts/InterchainCounter.sol\":798:1024  {... */\n      pop\n        /* \"contracts/InterchainCounter.sol\":534:1024  function _executeWithInterchainToken(... */\n      pop\n      pop\n      pop\n      pop\n      pop\n      pop\n      pop\n      pop\n      pop\n      pop\n      jump\t// out\n        /* \"#utility.yul\":7:133   */\n    tag_55:\n        /* \"#utility.yul\":44:51   */\n      0x00\n        /* \"#utility.yul\":84:126   */\n      0xffffffffffffffffffffffffffffffffffffffff\n        /* \"#utility.yul\":77:82   */\n      dup3\n        /* \"#utility.yul\":73:127   */\n      and\n        /* \"#utility.yul\":62:127   */\n      swap1\n      pop\n        /* \"#utility.yul\":7:133   */\n      swap2\n      swap1\n      pop\n      jump\t// out\n        /* \"#utility.yul\":139:235   */\n    tag_56:\n        /* \"#utility.yul\":176:183   */\n      0x00\n        /* \"#utility.yul\":205:229   */\n      tag_83\n        /* \"#utility.yul\":223:228   */\n      dup3\n        /* \"#utility.yul\":205:229   */\n      tag_55\n      jump\t// in\n    tag_83:\n        /* \"#utility.yul\":194:229   */\n      swap1\n      pop\n        /* \"#utility.yul\":139:235   */\n      swap2\n      swap1\n      pop\n      jump\t// out\n        /* \"#utility.yul\":241:359   */\n    tag_57:\n        /* \"#utility.yul\":328:352   */\n      tag_85\n        /* \"#utility.yul\":346:351   */\n      dup2\n        /* \"#utility.yul\":328:352   */\n      tag_56\n      jump\t// in\n    tag_85:\n        /* \"#utility.yul\":323:326   */\n      dup3\n        /* \"#utility.yul\":316:353   */\n      mstore\n        /* \"#utility.yul\":241:359   */\n      pop\n      pop\n      jump\t// out\n        /* \"#utility.yul\":365:587   */\n    tag_12:\n        /* \"#utility.yul\":458:462   */\n      0x00\n        /* \"#utility.yul\":496:498   */\n      0x20\n        /* \"#utility.yul\":485:494   */\n      dup3\n        /* \"#utility.yul\":481:499   */\n      add\n        /* \"#utility.yul\":473:499   */\n      swap1\n      pop\n        /* \"#utility.yul\":509:580   */\n      tag_87\n        /* \"#utility.yul\":577:578   */\n      0x00\n        /* \"#utility.yul\":566:575   */\n      dup4\n        /* \"#utility.yul\":562:579   */\n      add\n        /* \"#utility.yul\":553:559   */\n      dup5\n        /* \"#utility.yul\":509:580   */\n      tag_57\n      jump\t// in\n    tag_87:\n        /* \"#utility.yul\":365:587   */\n      swap3\n      swap2\n      pop\n      pop\n      jump\t// out\n        /* \"#utility.yul\":674:791   */\n    tag_59:\n        /* \"#utility.yul\":783:784   */\n      0x00\n        /* \"#utility.yul\":780:781   */\n      0x00\n        /* \"#utility.yul\":773:785   */\n      revert\n        /* \"#utility.yul\":797:914   */\n    tag_60:\n        /* \"#utility.yul\":906:907   */\n      0x00\n        /* \"#utility.yul\":903:904   */\n      0x00\n        /* \"#utility.yul\":896:908   */\n      revert\n        /* \"#utility.yul\":920:997   */\n    tag_61:\n        /* \"#utility.yul\":957:964   */\n      0x00\n        /* \"#utility.yul\":986:991   */\n      dup2\n        /* \"#utility.yul\":975:991   */\n      swap1\n      pop\n        /* \"#utility.yul\":920:997   */\n      swap2\n      swap1\n      pop\n      jump\t// out\n        /* \"#utility.yul\":1003:1125   */\n    tag_62:\n        /* \"#utility.yul\":1076:1100   */\n      tag_93\n        /* \"#utility.yul\":1094:1099   */\n      dup2\n        /* \"#utility.yul\":1076:1100   */\n      tag_61\n      jump\t// in\n    tag_93:\n        /* \"#utility.yul\":1069:1074   */\n      dup2\n        /* \"#utility.yul\":1066:1101   */\n      eq\n        /* \"#utility.yul\":1056:1119   */\n      tag_94\n      jumpi\n        /* \"#utility.yul\":1115:1116   */\n      0x00\n        /* \"#utility.yul\":1112:1113   */\n      0x00\n        /* \"#utility.yul\":1105:1117   */\n      revert\n        /* \"#utility.yul\":1056:1119   */\n    tag_94:\n        /* \"#utility.yul\":1003:1125   */\n      pop\n      jump\t// out\n        /* \"#utility.yul\":1131:1270   */\n    tag_63:\n        /* \"#utility.yul\":1177:1182   */\n      0x00\n        /* \"#utility.yul\":1215:1221   */\n      dup2\n        /* \"#utility.yul\":1202:1222   */\n      calldataload\n        /* \"#utility.yul\":1193:1222   */\n      swap1\n      pop\n        /* \"#utility.yul\":1231:1264   */\n      tag_96\n        /* \"#utility.yul\":1258:1263   */\n      dup2\n        /* \"#utility.yul\":1231:1264   */\n      tag_62\n      jump\t// in\n    tag_96:\n        /* \"#utility.yul\":1131:1270   */\n      swap3\n      swap2\n      pop\n      pop\n      jump\t// out\n        /* \"#utility.yul\":1276:1393   */\n    tag_64:\n        /* \"#utility.yul\":1385:1386   */\n      0x00\n        /* \"#utility.yul\":1382:1383   */\n      0x00\n        /* \"#utility.yul\":1375:1387   */\n      revert\n        /* \"#utility.yul\":1399:1516   */\n    tag_65:\n        /* \"#utility.yul\":1508:1509   */\n      0x00\n        /* \"#utility.yul\":1505:1506   */\n      0x00\n        /* \"#utility.yul\":1498:1510   */\n      revert\n        /* \"#utility.yul\":1522:1639   */\n    tag_66:\n        /* \"#utility.yul\":1631:1632   */\n      0x00\n        /* \"#utility.yul\":1628:1629   */\n      0x00\n        /* \"#utility.yul\":1621:1633   */\n      revert\n        /* \"#utility.yul\":1659:2212   */\n    tag_67:\n        /* \"#utility.yul\":1717:1725   */\n      0x00\n        /* \"#utility.yul\":1727:1733   */\n      0x00\n        /* \"#utility.yul\":1777:1780   */\n      dup4\n        /* \"#utility.yul\":1770:1774   */\n      0x1f\n        /* \"#utility.yul\":1762:1768   */\n      dup5\n        /* \"#utility.yul\":1758:1775   */\n      add\n        /* \"#utility.yul\":1754:1781   */\n      slt\n        /* \"#utility.yul\":1744:1866   */\n      tag_101\n      jumpi\n        /* \"#utility.yul\":1785:1864   */\n      tag_102\n      tag_64\n      jump\t// in\n    tag_102:\n        /* \"#utility.yul\":1744:1866   */\n    tag_101:\n        /* \"#utility.yul\":1898:1904   */\n      dup3\n        /* \"#utility.yul\":1885:1905   */\n      calldataload\n        /* \"#utility.yul\":1875:1905   */\n      swap1\n      pop\n        /* \"#utility.yul\":1928:1946   */\n      0xffffffffffffffff\n        /* \"#utility.yul\":1920:1926   */\n      dup2\n        /* \"#utility.yul\":1917:1947   */\n      gt\n        /* \"#utility.yul\":1914:2031   */\n      iszero\n      tag_103\n      jumpi\n        /* \"#utility.yul\":1950:2029   */\n      tag_104\n      tag_65\n      jump\t// in\n    tag_104:\n        /* \"#utility.yul\":1914:2031   */\n    tag_103:\n        /* \"#utility.yul\":2064:2068   */\n      0x20\n        /* \"#utility.yul\":2056:2062   */\n      dup4\n        /* \"#utility.yul\":2052:2069   */\n      add\n        /* \"#utility.yul\":2040:2069   */\n      swap2\n      pop\n        /* \"#utility.yul\":2118:2121   */\n      dup4\n        /* \"#utility.yul\":2110:2114   */\n      0x01\n        /* \"#utility.yul\":2102:2108   */\n      dup3\n        /* \"#utility.yul\":2098:2115   */\n      mul\n        /* \"#utility.yul\":2088:2096   */\n      dup4\n        /* \"#utility.yul\":2084:2116   */\n      add\n        /* \"#utility.yul\":2081:2122   */\n      gt\n        /* \"#utility.yul\":2078:2206   */\n      iszero\n      tag_105\n      jumpi\n        /* \"#utility.yul\":2125:2204   */\n      tag_106\n      tag_66\n      jump\t// in\n    tag_106:\n        /* \"#utility.yul\":2078:2206   */\n    tag_105:\n        /* \"#utility.yul\":1659:2212   */\n      swap3\n      pop\n      swap3\n      swap1\n      pop\n      jump\t// out\n        /* \"#utility.yul\":2231:2783   */\n    tag_68:\n        /* \"#utility.yul\":2288:2296   */\n      0x00\n        /* \"#utility.yul\":2298:2304   */\n      0x00\n        /* \"#utility.yul\":2348:2351   */\n      dup4\n        /* \"#utility.yul\":2341:2345   */\n      0x1f\n        /* \"#utility.yul\":2333:2339   */\n      dup5\n        /* \"#utility.yul\":2329:2346   */\n      add\n        /* \"#utility.yul\":2325:2352   */\n      slt\n        /* \"#utility.yul\":2315:2437   */\n      tag_108\n      jumpi\n        /* \"#utility.yul\":2356:2435   */\n      tag_109\n      tag_64\n      jump\t// in\n    tag_109:\n        /* \"#utility.yul\":2315:2437   */\n    tag_108:\n        /* \"#utility.yul\":2469:2475   */\n      dup3\n        /* \"#utility.yul\":2456:2476   */\n      calldataload\n        /* \"#utility.yul\":2446:2476   */\n      swap1\n      pop\n        /* \"#utility.yul\":2499:2517   */\n      0xffffffffffffffff\n        /* \"#utility.yul\":2491:2497   */\n      dup2\n        /* \"#utility.yul\":2488:2518   */\n      gt\n        /* \"#utility.yul\":2485:2602   */\n      iszero\n      tag_110\n      jumpi\n        /* \"#utility.yul\":2521:2600   */\n      tag_111\n      tag_65\n      jump\t// in\n    tag_111:\n        /* \"#utility.yul\":2485:2602   */\n    tag_110:\n        /* \"#utility.yul\":2635:2639   */\n      0x20\n        /* \"#utility.yul\":2627:2633   */\n      dup4\n        /* \"#utility.yul\":2623:2640   */\n      add\n        /* \"#utility.yul\":2611:2640   */\n      swap2\n      pop\n        /* \"#utility.yul\":2689:2692   */\n      dup4\n        /* \"#utility.yul\":2681:2685   */\n      0x01\n        /* \"#utility.yul\":2673:2679   */\n      dup3\n        /* \"#utility.yul\":2669:2686   */\n      mul\n        /* \"#utility.yul\":2659:2667   */\n      dup4\n        /* \"#utility.yul\":2655:2687   */\n      add\n        /* \"#utility.yul\":2652:2693   */\n      gt\n        /* \"#utility.yul\":2649:2777   */\n      iszero\n      tag_112\n      jumpi\n        /* \"#utility.yul\":2696:2775   */\n      tag_113\n      tag_66\n      jump\t// in\n    tag_113:\n        /* \"#utility.yul\":2649:2777   */\n    tag_112:\n        /* \"#utility.yul\":2231:2783   */\n      swap3\n      pop\n      swap3\n      swap1\n      pop\n      jump\t// out\n        /* \"#utility.yul\":2789:2911   */\n    tag_69:\n        /* \"#utility.yul\":2862:2886   */\n      tag_115\n        /* \"#utility.yul\":2880:2885   */\n      dup2\n        /* \"#utility.yul\":2862:2886   */\n      tag_56\n      jump\t// in\n    tag_115:\n        /* \"#utility.yul\":2855:2860   */\n      dup2\n        /* \"#utility.yul\":2852:2887   */\n      eq\n        /* \"#utility.yul\":2842:2905   */\n      tag_116\n      jumpi\n        /* \"#utility.yul\":2901:2902   */\n      0x00\n        /* \"#utility.yul\":2898:2899   */\n      0x00\n        /* \"#utility.yul\":2891:2903   */\n      revert\n        /* \"#utility.yul\":2842:2905   */\n    tag_116:\n        /* \"#utility.yul\":2789:2911   */\n      pop\n      jump\t// out\n        /* \"#utility.yul\":2917:3056   */\n    tag_70:\n        /* \"#utility.yul\":2963:2968   */\n      0x00\n        /* \"#utility.yul\":3001:3007   */\n      dup2\n        /* \"#utility.yul\":2988:3008   */\n      calldataload\n        /* \"#utility.yul\":2979:3008   */\n      swap1\n      pop\n        /* \"#utility.yul\":3017:3050   */\n      tag_118\n        /* \"#utility.yul\":3044:3049   */\n      dup2\n        /* \"#utility.yul\":3017:3050   */\n      tag_69\n      jump\t// in\n    tag_118:\n        /* \"#utility.yul\":2917:3056   */\n      swap3\n      swap2\n      pop\n      pop\n      jump\t// out\n        /* \"#utility.yul\":3062:3139   */\n    tag_71:\n        /* \"#utility.yul\":3099:3106   */\n      0x00\n        /* \"#utility.yul\":3128:3133   */\n      dup2\n        /* \"#utility.yul\":3117:3133   */\n      swap1\n      pop\n        /* \"#utility.yul\":3062:3139   */\n      swap2\n      swap1\n      pop\n      jump\t// out\n        /* \"#utility.yul\":3145:3267   */\n    tag_72:\n        /* \"#utility.yul\":3218:3242   */\n      tag_121\n        /* \"#utility.yul\":3236:3241   */\n      dup2\n        /* \"#utility.yul\":3218:3242   */\n      tag_71\n      jump\t// in\n    tag_121:\n        /* \"#utility.yul\":3211:3216   */\n      dup2\n        /* \"#utility.yul\":3208:3243   */\n      eq\n        /* \"#utility.yul\":3198:3261   */\n      tag_122\n      jumpi\n        /* \"#utility.yul\":3257:3258   */\n      0x00\n        /* \"#utility.yul\":3254:3255   */\n      0x00\n        /* \"#utility.yul\":3247:3259   */\n      revert\n        /* \"#utility.yul\":3198:3261   */\n    tag_122:\n        /* \"#utility.yul\":3145:3267   */\n      pop\n      jump\t// out\n        /* \"#utility.yul\":3273:3412   */\n    tag_73:\n        /* \"#utility.yul\":3319:3324   */\n      0x00\n        /* \"#utility.yul\":3357:3363   */\n      dup2\n        /* \"#utility.yul\":3344:3364   */\n      calldataload\n        /* \"#utility.yul\":3335:3364   */\n      swap1\n      pop\n        /* \"#utility.yul\":3373:3406   */\n      tag_124\n        /* \"#utility.yul\":3400:3405   */\n      dup2\n        /* \"#utility.yul\":3373:3406   */\n      tag_72\n      jump\t// in\n    tag_124:\n        /* \"#utility.yul\":3273:3412   */\n      swap3\n      swap2\n      pop\n      pop\n      jump\t// out\n        /* \"#utility.yul\":3418:5217   */\n    tag_15:\n        /* \"#utility.yul\":3565:3571   */\n      0x00\n        /* \"#utility.yul\":3573:3579   */\n      0x00\n        /* \"#utility.yul\":3581:3587   */\n      0x00\n        /* \"#utility.yul\":3589:3595   */\n      0x00\n        /* \"#utility.yul\":3597:3603   */\n      0x00\n        /* \"#utility.yul\":3605:3611   */\n      0x00\n        /* \"#utility.yul\":3613:3619   */\n      0x00\n        /* \"#utility.yul\":3621:3627   */\n      0x00\n        /* \"#utility.yul\":3629:3635   */\n      0x00\n        /* \"#utility.yul\":3637:3643   */\n      0x00\n        /* \"#utility.yul\":3686:3689   */\n      0xe0\n        /* \"#utility.yul\":3674:3683   */\n      dup12\n        /* \"#utility.yul\":3665:3672   */\n      dup14\n        /* \"#utility.yul\":3661:3684   */\n      sub\n        /* \"#utility.yul\":3657:3690   */\n      slt\n        /* \"#utility.yul\":3654:3774   */\n      iszero\n      tag_126\n      jumpi\n        /* \"#utility.yul\":3693:3772   */\n      tag_127\n      tag_59\n      jump\t// in\n    tag_127:\n        /* \"#utility.yul\":3654:3774   */\n    tag_126:\n        /* \"#utility.yul\":3813:3814   */\n      0x00\n        /* \"#utility.yul\":3838:3891   */\n      tag_128\n        /* \"#utility.yul\":3883:3890   */\n      dup14\n        /* \"#utility.yul\":3874:3880   */\n      dup3\n        /* \"#utility.yul\":3863:3872   */\n      dup15\n        /* \"#utility.yul\":3859:3881   */\n      add\n        /* \"#utility.yul\":3838:3891   */\n      tag_63\n      jump\t// in\n    tag_128:\n        /* \"#utility.yul\":3828:3891   */\n      swap11\n      pop\n        /* \"#utility.yul\":3784:3901   */\n      pop\n        /* \"#utility.yul\":3968:3970   */\n      0x20\n        /* \"#utility.yul\":3957:3966   */\n      dup12\n        /* \"#utility.yul\":3953:3971   */\n      add\n        /* \"#utility.yul\":3940:3972   */\n      calldataload\n        /* \"#utility.yul\":3999:4017   */\n      0xffffffffffffffff\n        /* \"#utility.yul\":3991:3997   */\n      dup2\n        /* \"#utility.yul\":3988:4018   */\n      gt\n        /* \"#utility.yul\":3985:4102   */\n      iszero\n      tag_129\n      jumpi\n        /* \"#utility.yul\":4021:4100   */\n      tag_130\n      tag_60\n      jump\t// in\n    tag_130:\n        /* \"#utility.yul\":3985:4102   */\n    tag_129:\n        /* \"#utility.yul\":4134:4199   */\n      tag_131\n        /* \"#utility.yul\":4191:4198   */\n      dup14\n        /* \"#utility.yul\":4182:4188   */\n      dup3\n        /* \"#utility.yul\":4171:4180   */\n      dup15\n        /* \"#utility.yul\":4167:4189   */\n      add\n        /* \"#utility.yul\":4134:4199   */\n      tag_67\n      jump\t// in\n    tag_131:\n        /* \"#utility.yul\":4116:4199   */\n      swap10\n      pop\n      swap10\n      pop\n        /* \"#utility.yul\":3911:4209   */\n      pop\n        /* \"#utility.yul\":4276:4278   */\n      0x40\n        /* \"#utility.yul\":4265:4274   */\n      dup12\n        /* \"#utility.yul\":4261:4279   */\n      add\n        /* \"#utility.yul\":4248:4280   */\n      calldataload\n        /* \"#utility.yul\":4307:4325   */\n      0xffffffffffffffff\n        /* \"#utility.yul\":4299:4305   */\n      dup2\n        /* \"#utility.yul\":4296:4326   */\n      gt\n        /* \"#utility.yul\":4293:4410   */\n      iszero\n      tag_132\n      jumpi\n        /* \"#utility.yul\":4329:4408   */\n      tag_133\n      tag_60\n      jump\t// in\n    tag_133:\n        /* \"#utility.yul\":4293:4410   */\n    tag_132:\n        /* \"#utility.yul\":4442:4506   */\n      tag_134\n        /* \"#utility.yul\":4498:4505   */\n      dup14\n        /* \"#utility.yul\":4489:4495   */\n      dup3\n        /* \"#utility.yul\":4478:4487   */\n      dup15\n        /* \"#utility.yul\":4474:4496   */\n      add\n        /* \"#utility.yul\":4442:4506   */\n      tag_68\n      jump\t// in\n    tag_134:\n        /* \"#utility.yul\":4424:4506   */\n      swap8\n      pop\n      swap8\n      pop\n        /* \"#utility.yul\":4219:4516   */\n      pop\n        /* \"#utility.yul\":4583:4585   */\n      0x60\n        /* \"#utility.yul\":4572:4581   */\n      dup12\n        /* \"#utility.yul\":4568:4586   */\n      add\n        /* \"#utility.yul\":4555:4587   */\n      calldataload\n        /* \"#utility.yul\":4614:4632   */\n      0xffffffffffffffff\n        /* \"#utility.yul\":4606:4612   */\n      dup2\n        /* \"#utility.yul\":4603:4633   */\n      gt\n        /* \"#utility.yul\":4600:4717   */\n      iszero\n      tag_135\n      jumpi\n        /* \"#utility.yul\":4636:4715   */\n      tag_136\n      tag_60\n      jump\t// in\n    tag_136:\n        /* \"#utility.yul\":4600:4717   */\n    tag_135:\n        /* \"#utility.yul\":4749:4813   */\n      tag_137\n        /* \"#utility.yul\":4805:4812   */\n      dup14\n        /* \"#utility.yul\":4796:4802   */\n      dup3\n        /* \"#utility.yul\":4785:4794   */\n      dup15\n        /* \"#utility.yul\":4781:4803   */\n      add\n        /* \"#utility.yul\":4749:4813   */\n      tag_68\n      jump\t// in\n    tag_137:\n        /* \"#utility.yul\":4731:4813   */\n      swap6\n      pop\n      swap6\n      pop\n        /* \"#utility.yul\":4526:4823   */\n      pop\n        /* \"#utility.yul\":4862:4865   */\n      0x80\n        /* \"#utility.yul\":4889:4942   */\n      tag_138\n        /* \"#utility.yul\":4934:4941   */\n      dup14\n        /* \"#utility.yul\":4925:4931   */\n      dup3\n        /* \"#utility.yul\":4914:4923   */\n      dup15\n        /* \"#utility.yul\":4910:4932   */\n      add\n        /* \"#utility.yul\":4889:4942   */\n      tag_63\n      jump\t// in\n    tag_138:\n        /* \"#utility.yul\":4879:4942   */\n      swap4\n      pop\n        /* \"#utility.yul\":4833:4952   */\n      pop\n        /* \"#utility.yul\":4991:4994   */\n      0xa0\n        /* \"#utility.yul\":5018:5071   */\n      tag_139\n        /* \"#utility.yul\":5063:5070   */\n      dup14\n        /* \"#utility.yul\":5054:5060   */\n      dup3\n        /* \"#utility.yul\":5043:5052   */\n      dup15\n        /* \"#utility.yul\":5039:5061   */\n      add\n        /* \"#utility.yul\":5018:5071   */\n      tag_70\n      jump\t// in\n    tag_139:\n        /* \"#utility.yul\":5008:5071   */\n      swap3\n      pop\n        /* \"#utility.yul\":4962:5081   */\n      pop\n        /* \"#utility.yul\":5120:5123   */\n      0xc0\n        /* \"#utility.yul\":5147:5200   */\n      tag_140\n        /* \"#utility.yul\":5192:5199   */\n      dup14\n        /* \"#utility.yul\":5183:5189   */\n      dup3\n        /* \"#utility.yul\":5172:5181   */\n      dup15\n        /* \"#utility.yul\":5168:5190   */\n      add\n        /* \"#utility.yul\":5147:5200   */\n      tag_73\n      jump\t// in\n    tag_140:\n        /* \"#utility.yul\":5137:5200   */\n      swap2\n      pop\n        /* \"#utility.yul\":5091:5210   */\n      pop\n        /* \"#utility.yul\":3418:5217   */\n      swap3\n      swap6\n      swap9\n      swap12\n      swap2\n      swap5\n      swap8\n      swap11\n      pop\n      swap3\n      swap6\n      swap9\n      pop\n      jump\t// out\n        /* \"#utility.yul\":5223:5341   */\n    tag_74:\n        /* \"#utility.yul\":5310:5334   */\n      tag_142\n        /* \"#utility.yul\":5328:5333   */\n      dup2\n        /* \"#utility.yul\":5310:5334   */\n      tag_61\n      jump\t// in\n    tag_142:\n        /* \"#utility.yul\":5305:5308   */\n      dup3\n        /* \"#utility.yul\":5298:5335   */\n      mstore\n        /* \"#utility.yul\":5223:5341   */\n      pop\n      pop\n      jump\t// out\n        /* \"#utility.yul\":5347:5569   */\n    tag_18:\n        /* \"#utility.yul\":5440:5444   */\n      0x00\n        /* \"#utility.yul\":5478:5480   */\n      0x20\n        /* \"#utility.yul\":5467:5476   */\n      dup3\n        /* \"#utility.yul\":5463:5481   */\n      add\n        /* \"#utility.yul\":5455:5481   */\n      swap1\n      pop\n        /* \"#utility.yul\":5491:5562   */\n      tag_144\n        /* \"#utility.yul\":5559:5560   */\n      0x00\n        /* \"#utility.yul\":5548:5557   */\n      dup4\n        /* \"#utility.yul\":5544:5561   */\n      add\n        /* \"#utility.yul\":5535:5541   */\n      dup5\n        /* \"#utility.yul\":5491:5562   */\n      tag_74\n      jump\t// in\n    tag_144:\n        /* \"#utility.yul\":5347:5569   */\n      swap3\n      swap2\n      pop\n      pop\n      jump\t// out\n        /* \"#utility.yul\":5575:5693   */\n    tag_75:\n        /* \"#utility.yul\":5662:5686   */\n      tag_146\n        /* \"#utility.yul\":5680:5685   */\n      dup2\n        /* \"#utility.yul\":5662:5686   */\n      tag_71\n      jump\t// in\n    tag_146:\n        /* \"#utility.yul\":5657:5660   */\n      dup3\n        /* \"#utility.yul\":5650:5687   */\n      mstore\n        /* \"#utility.yul\":5575:5693   */\n      pop\n      pop\n      jump\t// out\n        /* \"#utility.yul\":5699:5921   */\n    tag_24:\n        /* \"#utility.yul\":5792:5796   */\n      0x00\n        /* \"#utility.yul\":5830:5832   */\n      0x20\n        /* \"#utility.yul\":5819:5828   */\n      dup3\n        /* \"#utility.yul\":5815:5833   */\n      add\n        /* \"#utility.yul\":5807:5833   */\n      swap1\n      pop\n        /* \"#utility.yul\":5843:5914   */\n      tag_148\n        /* \"#utility.yul\":5911:5912   */\n      0x00\n        /* \"#utility.yul\":5900:5909   */\n      dup4\n        /* \"#utility.yul\":5896:5913   */\n      add\n        /* \"#utility.yul\":5887:5893   */\n      dup5\n        /* \"#utility.yul\":5843:5914   */\n      tag_75\n      jump\t// in\n    tag_148:\n        /* \"#utility.yul\":5699:5921   */\n      swap3\n      swap2\n      pop\n      pop\n      jump\t// out\n        /* \"#utility.yul\":5927:6107   */\n    tag_76:\n        /* \"#utility.yul\":5975:6052   */\n      0x4e487b7100000000000000000000000000000000000000000000000000000000\n        /* \"#utility.yul\":5972:5973   */\n      0x00\n        /* \"#utility.yul\":5965:6053   */\n      mstore\n        /* \"#utility.yul\":6072:6076   */\n      0x11\n        /* \"#utility.yul\":6069:6070   */\n      0x04\n        /* \"#utility.yul\":6062:6077   */\n      mstore\n        /* \"#utility.yul\":6096:6100   */\n      0x24\n        /* \"#utility.yul\":6093:6094   */\n      0x00\n        /* \"#utility.yul\":6086:6101   */\n      revert\n        /* \"#utility.yul\":6113:6304   */\n    tag_38:\n        /* \"#utility.yul\":6153:6156   */\n      0x00\n        /* \"#utility.yul\":6172:6192   */\n      tag_151\n        /* \"#utility.yul\":6190:6191   */\n      dup3\n        /* \"#utility.yul\":6172:6192   */\n      tag_71\n      jump\t// in\n    tag_151:\n        /* \"#utility.yul\":6167:6192   */\n      swap2\n      pop\n        /* \"#utility.yul\":6206:6226   */\n      tag_152\n        /* \"#utility.yul\":6224:6225   */\n      dup4\n        /* \"#utility.yul\":6206:6226   */\n      tag_71\n      jump\t// in\n    tag_152:\n        /* \"#utility.yul\":6201:6226   */\n      swap3\n      pop\n        /* \"#utility.yul\":6249:6250   */\n      dup3\n        /* \"#utility.yul\":6246:6247   */\n      dup3\n        /* \"#utility.yul\":6242:6251   */\n      add\n        /* \"#utility.yul\":6235:6251   */\n      swap1\n      pop\n        /* \"#utility.yul\":6270:6273   */\n      dup1\n        /* \"#utility.yul\":6267:6268   */\n      dup3\n        /* \"#utility.yul\":6264:6274   */\n      gt\n        /* \"#utility.yul\":6261:6297   */\n      iszero\n      tag_153\n      jumpi\n        /* \"#utility.yul\":6277:6295   */\n      tag_154\n      tag_76\n      jump\t// in\n    tag_154:\n        /* \"#utility.yul\":6261:6297   */\n    tag_153:\n        /* \"#utility.yul\":6113:6304   */\n      swap3\n      swap2\n      pop\n      pop\n      jump\t// out\n        /* \"#utility.yul\":6310:6504   */\n    tag_42:\n        /* \"#utility.yul\":6350:6354   */\n      0x00\n        /* \"#utility.yul\":6370:6390   */\n      tag_156\n        /* \"#utility.yul\":6388:6389   */\n      dup3\n        /* \"#utility.yul\":6370:6390   */\n      tag_71\n      jump\t// in\n    tag_156:\n        /* \"#utility.yul\":6365:6390   */\n      swap2\n      pop\n        /* \"#utility.yul\":6404:6424   */\n      tag_157\n        /* \"#utility.yul\":6422:6423   */\n      dup4\n        /* \"#utility.yul\":6404:6424   */\n      tag_71\n      jump\t// in\n    tag_157:\n        /* \"#utility.yul\":6399:6424   */\n      swap3\n      pop\n        /* \"#utility.yul\":6448:6449   */\n      dup3\n        /* \"#utility.yul\":6445:6446   */\n      dup3\n        /* \"#utility.yul\":6441:6450   */\n      sub\n        /* \"#utility.yul\":6433:6450   */\n      swap1\n      pop\n        /* \"#utility.yul\":6472:6473   */\n      dup2\n        /* \"#utility.yul\":6466:6470   */\n      dup2\n        /* \"#utility.yul\":6463:6474   */\n      gt\n        /* \"#utility.yul\":6460:6497   */\n      iszero\n      tag_158\n      jumpi\n        /* \"#utility.yul\":6477:6495   */\n      tag_159\n      tag_76\n      jump\t// in\n    tag_159:\n        /* \"#utility.yul\":6460:6497   */\n    tag_158:\n        /* \"#utility.yul\":6310:6504   */\n      swap3\n      swap2\n      pop\n      pop\n      jump\t// out\n        /* \"#utility.yul\":6510:6596   */\n    tag_77:\n        /* \"#utility.yul\":6545:6552   */\n      0x00\n        /* \"#utility.yul\":6585:6589   */\n      0xff\n        /* \"#utility.yul\":6578:6583   */\n      dup3\n        /* \"#utility.yul\":6574:6590   */\n      and\n        /* \"#utility.yul\":6563:6590   */\n      swap1\n      pop\n        /* \"#utility.yul\":6510:6596   */\n      swap2\n      swap1\n      pop\n      jump\t// out\n        /* \"#utility.yul\":6602:6720   */\n    tag_78:\n        /* \"#utility.yul\":6673:6695   */\n      tag_162\n        /* \"#utility.yul\":6689:6694   */\n      dup2\n        /* \"#utility.yul\":6673:6695   */\n      tag_77\n      jump\t// in\n    tag_162:\n        /* \"#utility.yul\":6666:6671   */\n      dup2\n        /* \"#utility.yul\":6663:6696   */\n      eq\n        /* \"#utility.yul\":6653:6714   */\n      tag_163\n      jumpi\n        /* \"#utility.yul\":6710:6711   */\n      0x00\n        /* \"#utility.yul\":6707:6708   */\n      0x00\n        /* \"#utility.yul\":6700:6712   */\n      revert\n        /* \"#utility.yul\":6653:6714   */\n    tag_163:\n        /* \"#utility.yul\":6602:6720   */\n      pop\n      jump\t// out\n        /* \"#utility.yul\":6726:6861   */\n    tag_79:\n        /* \"#utility.yul\":6770:6775   */\n      0x00\n        /* \"#utility.yul\":6808:6814   */\n      dup2\n        /* \"#utility.yul\":6795:6815   */\n      calldataload\n        /* \"#utility.yul\":6786:6815   */\n      swap1\n      pop\n        /* \"#utility.yul\":6824:6855   */\n      tag_165\n        /* \"#utility.yul\":6849:6854   */\n      dup2\n        /* \"#utility.yul\":6824:6855   */\n      tag_78\n      jump\t// in\n    tag_165:\n        /* \"#utility.yul\":6726:6861   */\n      swap3\n      swap2\n      pop\n      pop\n      jump\t// out\n        /* \"#utility.yul\":6867:7192   */\n    tag_45:\n        /* \"#utility.yul\":6924:6930   */\n      0x00\n        /* \"#utility.yul\":6973:6975   */\n      0x20\n        /* \"#utility.yul\":6961:6970   */\n      dup3\n        /* \"#utility.yul\":6952:6959   */\n      dup5\n        /* \"#utility.yul\":6948:6971   */\n      sub\n        /* \"#utility.yul\":6944:6976   */\n      slt\n        /* \"#utility.yul\":6941:7060   */\n      iszero\n      tag_167\n      jumpi\n        /* \"#utility.yul\":6979:7058   */\n      tag_168\n      tag_59\n      jump\t// in\n    tag_168:\n        /* \"#utility.yul\":6941:7060   */\n    tag_167:\n        /* \"#utility.yul\":7099:7100   */\n      0x00\n        /* \"#utility.yul\":7124:7175   */\n      tag_169\n        /* \"#utility.yul\":7167:7174   */\n      dup5\n        /* \"#utility.yul\":7158:7164   */\n      dup3\n        /* \"#utility.yul\":7147:7156   */\n      dup6\n        /* \"#utility.yul\":7143:7165   */\n      add\n        /* \"#utility.yul\":7124:7175   */\n      tag_79\n      jump\t// in\n    tag_169:\n        /* \"#utility.yul\":7114:7175   */\n      swap2\n      pop\n        /* \"#utility.yul\":7070:7185   */\n      pop\n        /* \"#utility.yul\":6867:7192   */\n      swap3\n      swap2\n      pop\n      pop\n      jump\t// out\n        /* \"#utility.yul\":7198:7378   */\n    tag_48:\n        /* \"#utility.yul\":7246:7323   */\n      0x4e487b7100000000000000000000000000000000000000000000000000000000\n        /* \"#utility.yul\":7243:7244   */\n      0x00\n        /* \"#utility.yul\":7236:7324   */\n      mstore\n        /* \"#utility.yul\":7343:7347   */\n      0x21\n        /* \"#utility.yul\":7340:7341   */\n      0x04\n        /* \"#utility.yul\":7333:7348   */\n      mstore\n        /* \"#utility.yul\":7367:7371   */\n      0x24\n        /* \"#utility.yul\":7364:7365   */\n      0x00\n        /* \"#utility.yul\":7357:7372   */\n      revert\n\n    auxdata: 0xa2646970667358221220e38f56bbcedc643f61a6ad22dca2effb362701f7e97420cd0ce5cc441cf447f364736f6c634300081e0033\n}\n",
				"bytecode": {
					"linkReferences": {},
					"object": "60a060405234801561000f575f5ffd5b50604051610809380380610809833981810160405281019061003191906100cb565b808073ffffffffffffffffffffffffffffffffffffffff1660808173ffffffffffffffffffffffffffffffffffffffff168152505050506100f6565b5f5ffd5b5f73ffffffffffffffffffffffffffffffffffffffff82169050919050565b5f61009a82610071565b9050919050565b6100aa81610090565b81146100b4575f5ffd5b50565b5f815190506100c5816100a1565b92915050565b5f602082840312156100e0576100df61006d565b5b5f6100ed848285016100b7565b91505092915050565b6080516106f46101155f395f8181610104015261012901526106f45ff3fe608060405234801561000f575f5ffd5b5060043610610060575f3560e01c806309c6bed91461006457806329241502146100825780633eb392c7146100b257806361bc221a146100bc5780638ada066e146100da578063d732d955146100f8575b5f5ffd5b61006c610102565b60405161007991906102e9565b60405180910390f35b61009c60048036038101906100979190610450565b610126565b6040516100a9919061055c565b60405180910390f35b6100ba6101fa565b005b6100c4610214565b6040516100d19190610584565b60405180910390f35b6100e2610219565b6040516100ef9190610584565b60405180910390f35b610100610221565b005b7f000000000000000000000000000000000000000000000000000000000000000081565b5f7f000000000000000000000000000000000000000000000000000000000000000073ffffffffffffffffffffffffffffffffffffffff163373ffffffffffffffffffffffffffffffffffffffff16146101b757336040517f0d6c7be90000000000000000000000000000000000000000000000000000000081526004016101ae91906102e9565b60405180910390fd5b6101c98b8b8b8b8b8b8b8b8b8b61023b565b7fe84001f3dedacf7f9ddc370e9f09c26b37473e9e959ffdc4925f6fe33c9877e490509a9950505050505050505050565b60015f5f82825461020b91906105ca565b92505081905550565b5f5481565b5f5f54905090565b60015f5f82825461023291906105fd565b92505081905550565b5f858581019061024b9190610666565b90505f60018111156102605761025f610691565b5b60ff168160ff1603610275576102746101fa565b5b60018081111561028857610287610691565b5b60ff168160ff160361029d5761029c610221565b5b5050505050505050505050565b5f73ffffffffffffffffffffffffffffffffffffffff82169050919050565b5f6102d3826102aa565b9050919050565b6102e3816102c9565b82525050565b5f6020820190506102fc5f8301846102da565b92915050565b5f5ffd5b5f5ffd5b5f819050919050565b61031c8161030a565b8114610326575f5ffd5b50565b5f8135905061033781610313565b92915050565b5f5ffd5b5f5ffd5b5f5ffd5b5f5f83601f84011261035e5761035d61033d565b5b8235905067ffffffffffffffff81111561037b5761037a610341565b5b60208301915083600182028301111561039757610396610345565b5b9250929050565b5f5f83601f8401126103b3576103b261033d565b5b8235905067ffffffffffffffff8111156103d0576103cf610341565b5b6020830191508360018202830111156103ec576103eb610345565b5b9250929050565b6103fc816102c9565b8114610406575f5ffd5b50565b5f81359050610417816103f3565b92915050565b5f819050919050565b61042f8161041d565b8114610439575f5ffd5b50565b5f8135905061044a81610426565b92915050565b5f5f5f5f5f5f5f5f5f5f60e08b8d03121561046e5761046d610302565b5b5f61047b8d828e01610329565b9a505060208b013567ffffffffffffffff81111561049c5761049b610306565b5b6104a88d828e01610349565b995099505060408b013567ffffffffffffffff8111156104cb576104ca610306565b5b6104d78d828e0161039e565b975097505060608b013567ffffffffffffffff8111156104fa576104f9610306565b5b6105068d828e0161039e565b955095505060806105198d828e01610329565b93505060a061052a8d828e01610409565b92505060c061053b8d828e0161043c565b9150509295989b9194979a5092959850565b6105568161030a565b82525050565b5f60208201905061056f5f83018461054d565b92915050565b61057e8161041d565b82525050565b5f6020820190506105975f830184610575565b92915050565b7f4e487b71000000000000000000000000000000000000000000000000000000005f52601160045260245ffd5b5f6105d48261041d565b91506105df8361041d565b92508282019050808211156105f7576105f661059d565b5b92915050565b5f6106078261041d565b91506106128361041d565b925082820390508181111561062a5761062961059d565b5b92915050565b5f60ff82169050919050565b61064581610630565b811461064f575f5ffd5b50565b5f813590506106608161063c565b92915050565b5f6020828403121561067b5761067a610302565b5b5f61068884828501610652565b91505092915050565b7f4e487b71000000000000000000000000000000000000000000000000000000005f52602160045260245ffdfea2646970667358221220e38f56bbcedc643f61a6ad22dca2effb362701f7e97420cd0ce5cc441cf447f364736f6c634300081e0033",
					"opcodes": "PUSH1 0xA0 PUSH1 0x40 MSTORE CALLVALUE DUP1 ISZERO PUSH2 0xF JUMPI PUSH0 PUSH0 REVERT JUMPDEST POP PUSH1 0x40 MLOAD PUSH2 0x809 CODESIZE SUB DUP1 PUSH2 0x809 DUP4 CODECOPY DUP2 DUP2 ADD PUSH1 0x40 MSTORE DUP2 ADD SWAP1 PUSH2 0x31 SWAP2 SWAP1 PUSH2 0xCB JUMP JUMPDEST DUP1 DUP1 PUSH20 0xFFFFFFFFFFFFFFFFFFFFFFFFFFFFFFFFFFFFFFFF AND PUSH1 0x80 DUP2 PUSH20 0xFFFFFFFFFFFFFFFFFFFFFFFFFFFFFFFFFFFFFFFF AND DUP2 MSTORE POP POP POP POP PUSH2 0xF6 JUMP JUMPDEST PUSH0 PUSH0 REVERT JUMPDEST PUSH0 PUSH20 0xFFFFFFFFFFFFFFFFFFFFFFFFFFFFFFFFFFFFFFFF DUP3 AND SWAP1 POP SWAP2 SWAP1 POP JUMP JUMPDEST PUSH0 PUSH2 0x9A DUP3 PUSH2 0x71 JUMP JUMPDEST SWAP1 POP SWAP2 SWAP1 POP JUMP JUMPDEST PUSH2 0xAA DUP2 PUSH2 0x90 JUMP JUMPDEST DUP2 EQ PUSH2 0xB4 JUMPI PUSH0 PUSH0 REVERT JUMPDEST POP JUMP JUMPDEST PUSH0 DUP2 MLOAD SWAP1 POP PUSH2 0xC5 DUP2 PUSH2 0xA1 JUMP JUMPDEST SWAP3 SWAP2 POP POP JUMP JUMPDEST PUSH0 PUSH1 0x20 DUP3 DUP5 SUB SLT ISZERO PUSH2 0xE0 JUMPI PUSH2 0xDF PUSH2 0x6D JUMP JUMPDEST JUMPDEST PUSH0 PUSH2 0xED DUP5 DUP3 DUP6 ADD PUSH2 0xB7 JUMP JUMPDEST SWAP2 POP POP SWAP3 SWAP2 POP POP JUMP JUMPDEST PUSH1 0x80 MLOAD PUSH2 0x6F4 PUSH2 0x115 PUSH0 CODECOPY PUSH0 DUP2 DUP2 PUSH2 0x104 ADD MSTORE PUSH2 0x129 ADD MSTORE PUSH2 0x6F4 PUSH0 RETURN INVALID PUSH1 0x80 PUSH1 0x40 MSTORE CALLVALUE DUP1 ISZERO PUSH2 0xF JUMPI PUSH0 PUSH0 REVERT JUMPDEST POP PUSH1 0x4 CALLDATASIZE LT PUSH2 0x60 JUMPI PUSH0 CALLDATALOAD PUSH1 0xE0 SHR DUP1 PUSH4 0x9C6BED9 EQ PUSH2 0x64 JUMPI DUP1 PUSH4 0x29241502 EQ PUSH2 0x82 JUMPI DUP1 PUSH4 0x3EB392C7 EQ PUSH2 0xB2 JUMPI DUP1 PUSH4 0x61BC221A EQ PUSH2 0xBC JUMPI DUP1 PUSH4 0x8ADA066E EQ PUSH2 0xDA JUMPI DUP1 PUSH4 0xD732D955 EQ PUSH2 0xF8 JUMPI JUMPDEST PUSH0 PUSH0 REVERT JUMPDEST PUSH2 0x6C PUSH2 0x102 JUMP JUMPDEST PUSH1 0x40 MLOAD PUSH2 0x79 SWAP2 SWAP1 PUSH2 0x2E9 JUMP JUMPDEST PUSH1 0x40 MLOAD DUP1 SWAP2 SUB SWAP1 RETURN JUMPDEST PUSH2 0x9C PUSH1 0x4 DUP1 CALLDATASIZE SUB DUP2 ADD SWAP1 PUSH2 0x97 SWAP2 SWAP1 PUSH2 0x450 JUMP JUMPDEST PUSH2 0x126 JUMP JUMPDEST PUSH1 0x40 MLOAD PUSH2 0xA9 SWAP2 SWAP1 PUSH2 0x55C JUMP JUMPDEST PUSH1 0x40 MLOAD DUP1 SWAP2 SUB SWAP1 RETURN JUMPDEST PUSH2 0xBA PUSH2 0x1FA JUMP JUMPDEST STOP JUMPDEST PUSH2 0xC4 PUSH2 0x214 JUMP JUMPDEST PUSH1 0x40 MLOAD PUSH2 0xD1 SWAP2 SWAP1 PUSH2 0x584 JUMP JUMPDEST PUSH1 0x40 MLOAD DUP1 SWAP2 SUB SWAP1 RETURN JUMPDEST PUSH2 0xE2 PUSH2 0x219 JUMP JUMPDEST PUSH1 0x40 MLOAD PUSH2 0xEF SWAP2 SWAP1 PUSH2 0x584 JUMP JUMPDEST PUSH1 0x40 MLOAD DUP1 SWAP2 SUB SWAP1 RETURN JUMPDEST PUSH2 0x100 PUSH2 0x221 JUMP JUMPDEST STOP JUMPDEST PUSH32 0x0 DUP2 JUMP JUMPDEST PUSH0 PUSH32 0x0 PUSH20 0xFFFFFFFFFFFFFFFFFFFFFFFFFFFFFFFFFFFFFFFF AND CALLER PUSH20 0xFFFFFFFFFFFFFFFFFFFFFFFFFFFFFFFFFFFFFFFF AND EQ PUSH2 0x1B7 JUMPI CALLER PUSH1 0x40 MLOAD PUSH32 0xD6C7BE900000000000000000000000000000000000000000000000000000000 DUP2 MSTORE PUSH1 0x4 ADD PUSH2 0x1AE SWAP2 SWAP1 PUSH2 0x2E9 JUMP JUMPDEST PUSH1 0x40 MLOAD DUP1 SWAP2 SUB SWAP1 REVERT JUMPDEST PUSH2 0x1C9 DUP12 DUP12 DUP12 DUP12 DUP12 DUP12 DUP12 DUP12 DUP12 DUP12 PUSH2 0x23B JUMP JUMPDEST PUSH32 0xE84001F3DEDACF7F9DDC370E9F09C26B37473E9E959FFDC4925F6FE33C9877E4 SWAP1 POP SWAP11 SWAP10 POP POP POP POP POP POP POP POP POP POP JUMP JUMPDEST PUSH1 0x1 PUSH0 PUSH0 DUP3 DUP3 SLOAD PUSH2 0x20B SWAP2 SWAP1 PUSH2 0x5CA JUMP JUMPDEST SWAP3 POP POP DUP2 SWAP1 SSTORE POP JUMP JUMPDEST PUSH0 SLOAD DUP2 JUMP JUMPDEST PUSH0 PUSH0 SLOAD SWAP1 POP SWAP1 JUMP JUMPDEST PUSH1 0x1 PUSH0 PUSH0 DUP3 DUP3 SLOAD PUSH2 0x232 SWAP2 SWAP1 PUSH2 0x5FD JUMP JUMPDEST SWAP3 POP POP DUP2 SWAP1 SSTORE POP JUMP JUMPDEST PUSH0 DUP6 DUP6 DUP2 ADD SWAP1 PUSH2 0x24B SWAP2 SWAP1 PUSH2 0x666 JUMP JUMPDEST SWAP1 POP PUSH0 PUSH1 0x1 DUP2 GT ISZERO PUSH2 0x260 JUMPI PUSH2 0x25F PUSH2 0x691 JUMP JUMPDEST JUMPDEST PUSH1 0xFF AND DUP2 PUSH1 0xFF AND SUB PUSH2 0x275 JUMPI PUSH2 0x274 PUSH2 0x1FA JUMP JUMPDEST JUMPDEST PUSH1 0x1 DUP1 DUP2 GT ISZERO PUSH2 0x288 JUMPI PUSH2 0x287 PUSH2 0x691 JUMP JUMPDEST JUMPDEST PUSH1 0xFF AND DUP2 PUSH1 0xFF AND SUB PUSH2 0x29D JUMPI PUSH2 0x29C PUSH2 0x221 JUMP JUMPDEST JUMPDEST POP POP POP POP POP POP POP POP POP POP POP JUMP JUMPDEST PUSH0 PUSH20 0xFFFFFFFFFFFFFFFFFFFFFFFFFFFFFFFFFFFFFFFF DUP3 AND SWAP1 POP SWAP2 SWAP1 POP JUMP JUMPDEST PUSH0 PUSH2 0x2D3 DUP3 PUSH2 0x2AA JUMP JUMPDEST SWAP1 POP SWAP2 SWAP1 POP JUMP JUMPDEST PUSH2 0x2E3 DUP2 PUSH2 0x2C9 JUMP JUMPDEST DUP3 MSTORE POP POP JUMP JUMPDEST PUSH0 PUSH1 0x20 DUP3 ADD SWAP1 POP PUSH2 0x2FC PUSH0 DUP4 ADD DUP5 PUSH2 0x2DA JUMP JUMPDEST SWAP3 SWAP2 POP POP JUMP JUMPDEST PUSH0 PUSH0 REVERT JUMPDEST PUSH0 PUSH0 REVERT JUMPDEST PUSH0 DUP2 SWAP1 POP SWAP2 SWAP1 POP JUMP JUMPDEST PUSH2 0x31C DUP2 PUSH2 0x30A JUMP JUMPDEST DUP2 EQ PUSH2 0x326 JUMPI PUSH0 PUSH0 REVERT JUMPDEST POP JUMP JUMPDEST PUSH0 DUP2 CALLDATALOAD SWAP1 POP PUSH2 0x337 DUP2 PUSH2 0x313 JUMP JUMPDEST SWAP3 SWAP2 POP POP JUMP JUMPDEST PUSH0 PUSH0 REVERT JUMPDEST PUSH0 PUSH0 REVERT JUMPDEST PUSH0 PUSH0 REVERT JUMPDEST PUSH0 PUSH0 DUP4 PUSH1 0x1F DUP5 ADD SLT PUSH2 0x35E JUMPI PUSH2 0x35D PUSH2 0x33D JUMP JUMPDEST JUMPDEST DUP3 CALLDATALOAD SWAP1 POP PUSH8 0xFFFFFFFFFFFFFFFF DUP2 GT ISZERO PUSH2 0x37B JUMPI PUSH2 0x37A PUSH2 0x341 JUMP JUMPDEST JUMPDEST PUSH1 0x20 DUP4 ADD SWAP2 POP DUP4 PUSH1 0x1 DUP3 MUL DUP4 ADD GT ISZERO PUSH2 0x397 JUMPI PUSH2 0x396 PUSH2 0x345 JUMP JUMPDEST JUMPDEST SWAP3 POP SWAP3 SWAP1 POP JUMP JUMPDEST PUSH0 PUSH0 DUP4 PUSH1 0x1F DUP5 ADD SLT PUSH2 0x3B3 JUMPI PUSH2 0x3B2 PUSH2 0x33D JUMP JUMPDEST JUMPDEST DUP3 CALLDATALOAD SWAP1 POP PUSH8 0xFFFFFFFFFFFFFFFF DUP2 GT ISZERO PUSH2 0x3D0 JUMPI PUSH2 0x3CF PUSH2 0x341 JUMP JUMPDEST JUMPDEST PUSH1 0x20 DUP4 ADD SWAP2 POP DUP4 PUSH1 0x1 DUP3 MUL DUP4 ADD GT ISZERO PUSH2 0x3EC JUMPI PUSH2 0x3EB PUSH2 0x345 JUMP JUMPDEST JUMPDEST SWAP3 POP SWAP3 SWAP1 POP JUMP JUMPDEST PUSH2 0x3FC DUP2 PUSH2 0x2C9 JUMP JUMPDEST DUP2 EQ PUSH2 0x406 JUMPI PUSH0 PUSH0 REVERT JUMPDEST POP JUMP JUMPDEST PUSH0 DUP2 CALLDATALOAD SWAP1 POP PUSH2 0x417 DUP2 PUSH2 0x3F3 JUMP JUMPDEST SWAP3 SWAP2 POP POP JUMP JUMPDEST PUSH0 DUP2 SWAP1 POP SWAP2 SWAP1 POP JUMP JUMPDEST PUSH2 0x42F DUP2 PUSH2 0x41D JUMP JUMPDEST DUP2 EQ PUSH2 0x439 JUMPI PUSH0 PUSH0 REVERT JUMPDEST POP JUMP JUMPDEST PUSH0 DUP2 CALLDATALOAD SWAP1 POP PUSH2 0x44A DUP2 PUSH2 0x426 JUMP JUMPDEST SWAP3 SWAP2 POP POP JUMP JUMPDEST PUSH0 PUSH0 PUSH0 PUSH0 PUSH0 PUSH0 PUSH0 PUSH0 PUSH0 PUSH0 PUSH1 0xE0 DUP12 DUP14 SUB SLT ISZERO PUSH2 0x46E JUMPI PUSH2 0x46D PUSH2 0x302 JUMP JUMPDEST JUMPDEST PUSH0 PUSH2 0x47B DUP14 DUP3 DUP15 ADD PUSH2 0x329 JUMP JUMPDEST SWAP11 POP POP PUSH1 0x20 DUP12 ADD CALLDATALOAD PUSH8 0xFFFFFFFFFFFFFFFF DUP2 GT ISZERO PUSH2 0x49C JUMPI PUSH2 0x49B PUSH2 0x306 JUMP JUMPDEST JUMPDEST PUSH2 0x4A8 DUP14 DUP3 DUP15 ADD PUSH2 0x349 JUMP JUMPDEST SWAP10 POP SWAP10 POP POP PUSH1 0x40 DUP12 ADD CALLDATALOAD PUSH8 0xFFFFFFFFFFFFFFFF DUP2 GT ISZERO PUSH2 0x4CB JUMPI PUSH2 0x4CA PUSH2 0x306 JUMP JUMPDEST JUMPDEST PUSH2 0x4D7 DUP14 DUP3 DUP15 ADD PUSH2 0x39E JUMP JUMPDEST SWAP8 POP SWAP8 POP POP PUSH1 0x60 DUP12 ADD CALLDATALOAD PUSH8 0xFFFFFFFFFFFFFFFF DUP2 GT ISZERO PUSH2 0x4FA JUMPI PUSH2 0x4F9 PUSH2 0x306 JUMP JUMPDEST JUMPDEST PUSH2 0x506 DUP14 DUP3 DUP15 ADD PUSH2 0x39E JUMP JUMPDEST SWAP6 POP SWAP6 POP POP PUSH1 0x80 PUSH2 0x519 DUP14 DUP3 DUP15 ADD PUSH2 0x329 JUMP JUMPDEST SWAP4 POP POP PUSH1 0xA0 PUSH2 0x52A DUP14 DUP3 DUP15 ADD PUSH2 0x409 JUMP JUMPDEST SWAP3 POP POP PUSH1 0xC0 PUSH2 0x53B DUP14 DUP3 DUP15 ADD PUSH2 0x43C JUMP JUMPDEST SWAP2 POP POP SWAP3 SWAP6 SWAP9 SWAP12 SWAP2 SWAP5 SWAP8 SWAP11 POP SWAP3 SWAP6 SWAP9 POP JUMP JUMPDEST PUSH2 0x556 DUP2 PUSH2 0x30A JUMP JUMPDEST DUP3 MSTORE POP POP JUMP JUMPDEST PUSH0 PUSH1 0x20 DUP3 ADD SWAP1 POP PUSH2 0x56F PUSH0 DUP4 ADD DUP5 PUSH2 0x54D JUMP JUMPDEST SWAP3 SWAP2 POP POP JUMP JUMPDEST PUSH2 0x57E DUP2 PUSH2 0x41D JUMP JUMPDEST DUP3 MSTORE POP POP JUMP JUMPDEST PUSH0 PUSH1 0x20 DUP3 ADD SWAP1 POP PUSH2 0x597 PUSH0 DUP4 ADD DUP5 PUSH2 0x575 JUMP JUMPDEST SWAP3 SWAP2 POP POP JUMP JUMPDEST PUSH32 0x4E487B7100000000000000000000000000000000000000000000000000000000 PUSH0 MSTORE PUSH1 0x11 PUSH1 0x4 MSTORE PUSH1 0x24 PUSH0 REVERT JUMPDEST PUSH0 PUSH2 0x5D4 DUP3 PUSH2 0x41D JUMP JUMPDEST SWAP2 POP PUSH2 0x5DF DUP4 PUSH2 0x41D JUMP JUMPDEST SWAP3 POP DUP3 DUP3 ADD SWAP1 POP DUP1 DUP3 GT ISZERO PUSH2 0x5F7 JUMPI PUSH2 0x5F6 PUSH2 0x59D JUMP JUMPDEST JUMPDEST SWAP3 SWAP2 POP POP JUMP JUMPDEST PUSH0 PUSH2 0x607 DUP3 PUSH2 0x41D JUMP JUMPDEST SWAP2 POP PUSH2 0x612 DUP4 PUSH2 0x41D JUMP JUMPDEST SWAP3 POP DUP3 DUP3 SUB SWAP1 POP DUP2 DUP2 GT ISZERO PUSH2 0x62A JUMPI PUSH2 0x629 PUSH2 0x59D JUMP JUMPDEST JUMPDEST SWAP3 SWAP2 POP POP JUMP JUMPDEST PUSH0 PUSH1 0xFF DUP3 AND SWAP1 POP SWAP2 SWAP1 POP JUMP JUMPDEST PUSH2 0x645 DUP2 PUSH2 0x630 JUMP JUMPDEST DUP2 EQ PUSH2 0x64F JUMPI PUSH0 PUSH0 REVERT JUMPDEST POP JUMP JUMPDEST PUSH0 DUP2 CALLDATALOAD SWAP1 POP PUSH2 0x660 DUP2 PUSH2 0x63C JUMP JUMPDEST SWAP3 SWAP2 POP POP JUMP JUMPDEST PUSH0 PUSH1 0x20 DUP3 DUP5 SUB SLT ISZERO PUSH2 0x67B JUMPI PUSH2 0x67A PUSH2 0x302 JUMP JUMPDEST JUMPDEST PUSH0 PUSH2 0x688 DUP5 DUP3 DUP6 ADD PUSH2 0x652 JUMP JUMPDEST SWAP2 POP POP SWAP3 SWAP2 POP POP JUMP JUMPDEST PUSH32 0x4E487B7100000000000000000000000000000000000000000000000000000000 PUSH0 MSTORE PUSH1 0x21 PUSH1 0x4 MSTORE PUSH1 0x24 PUSH0 REVERT INVALID LOG2 PUSH5 0x6970667358 0x22 SLT KECCAK256 CALLF 0x8F56 0xBB 0xCE 0xDC PUSH5 0x3F61A6AD22 0xDC LOG2 0xEF EXTSTATICCALL CALLDATASIZE 0x27 ADD 0xF7 0xE9 PUSH21 0x20CD0CE5CC441CF447F364736F6C634300081E0033 "
				},
				"gasEstimates": {
					"creation": {
						"codeDepositCost": "356000",
						"executionCost": "infinite",
						"totalCost": "infinite"
					},
					"external": {
						"counter()": "2468",
						"decrease()": "infinite",
						"encrease()": "infinite",
						"executeWithInterchainToken(bytes32,string,bytes,bytes,bytes32,address,uint256)": "infinite",
						"getCounter()": "2497",
						"interchainTokenService()": "infinite"
					},
					"internal": {
						"_executeWithInterchainToken(bytes32,string calldata,bytes calldata,bytes calldata,bytes32,address,uint256)": "infinite"
					}
				},
				"methodIdentifiers": {
					"counter()": "61bc221a",
					"decrease()": "d732d955",
					"encrease()": "3eb392c7",
					"executeWithInterchainToken(bytes32,string,bytes,bytes,bytes32,address,uint256)": "29241502",
					"getCounter()": "8ada066e",
					"interchainTokenService()": "09c6bed9"
				}
			},
			"storageLayout": {
				"storage": [
					{
						"astId": 222,
						"contract": "contracts/InterchainCounter.sol:InterchainCounter",
						"label": "counter",
						"offset": 0,
						"slot": "0",
						"type": "t_uint256"
					}
				],
				"types": {
					"t_uint256": {
						"encoding": "inplace",
						"label": "uint256",
						"numberOfBytes": "32"
					}
				}
			},
			"userdoc": {
				"kind": "user",
				"methods": {
					"executeWithInterchainToken(bytes32,string,bytes,bytes,bytes32,address,uint256)": {
						"notice": "Executes logic in the context of an interchain token transfer."
					}
				},
				"version": 1
			}
		}
	}
}